:100000006F28B400841780048413A201201CA2006E
:10001000102003196A28102003196A2810206A2862
:100020003408A2060130A000A10100083405220610
:10003000031D0800A00A0319A10F15280800831644
:100040001C141A0883169B0A6A28030183169A0057
:100050001C1555309D00AA309D009C149C182E281C
:100060001C119B0A6A28A301A200FF30A207031CEF
:10007000A307031C6A280330A100DF304120352884
:10008000A101E83EA000A109FC30031C4A28A007FA
:1000900003184728A0076400A10F472820185028FC
:1000A000A01C5428000054280800A20003305A283D
:1000B000A2000530A80023082102031D61282208A0
:1000C0002002043003180130031902302805031DF3
:1000D000FF306A2883130313831264000800831619
:1000E000113085009F0183120730990083169B0110
:1000F00083121F20BE00831601309B0083121F2035
:10010000BF00A00105308400013001202008BA00A2
:100110002108BB000130A00005308400013001201F
:100120002008B8002108B9003A083807BC003B088D
:100130000318013E3907BD006400051AAA2883167A
:100140009B0183123C082620831601309B008312FA
:100150003D082620A001A1013D08A3003C0858202D
:10016000031DB92885103C3033208514143033200A
:1001700076283C08A0003D08A1003F08A3003E08E7
:100180005520031DC92885100F30332085141130E8
:08019000332076286300CA2821
:02400E00FC3F75
:00000001FF
